:100000002DC100004DC1000074C100009BC1000063
:10001000C2C10000E9C1000010C2000037C20000E8
:100020005EC2000085C20000ACC20000D3C2000066
:10003000FAC2000021C3000048C300006FC30000E3
:1000400096C30000BDC30000E4C300000BC4000061
:1000500032C4000059C4000080C40000A7C40000DE
:10006000CEC40000F5C400001CC5000043C500005C
:100070006AC5000091C50000B8C50000DFC50000DA
:1000800006C600002DC6000054C600006E616E005A
:10009000696E660000407A10F35A00A0724E18098B
:1000A0000010A5D4E80000E87648170000E40B54DF
:1000B000020000CA9A3B000000E1F50500008096AE
:1000C0009800000040420F000000A08601000000E0
:1000D000102700000000E80300000000640000009A
:1000E00000000A00000000000100000000002C7663
:1000F000D888DC674F0823DFC1DFAE59E1B1B7967E
:10010000E5E3E453C63AE651997696E8E6C28426DA
:10011000EB898C9B62ED407C6FFCEFBC9C9F40F2B6
:10012000BAA56FA5F490055A2AF75C936B6CF96732
:100130006DC11BFCE0E40D47FEF520E6B500D0EDF7
:10014000902E0300943577050080841E080000205F
:100150004E0A000000C80C333333330F986E1283FD
:100160001141EF8D2114893BE65516CFFEE6DB18D1
:10017000D1844B381BF77C1D901DA4BBE424203296
:1001800084725E228100C9F124ECA1E53D276364FD
:10019000696E6F70737578585B6566674546470092
:1001A000616E006E66696E69747900CDCCCC3D0AD3
:1001B000D7233C17B7D13877CC2B329595E6241F3F
:1001C000B14F0A000020410000C84200401C4620F8
:1001D000BCBE4CCA1B0E5AAEC59D741EFFFFFFFF6E
:1001E000FFFFFFFFFFFFFFFFFFFFFFFFFFFFFFFF1F
:1001F000FFFFFFFFFFFFFFFFFFFFFFFFFFFFFFFF0F
:10020000FFFFFFFFFFFFFFFF1BFFFF0001020304D3
:100210000506070809FFFFFFFFFFFFFF0A0B0C0D94
:100220000E0F10111213FF14FF151617FFFFFFFF1B
:1002300018FFFFFF19FFFFFFFFFF1AFF0A0B0C0D4E
:100240000E0F10111213FF14FF151617FFFF18FFE2
:1002500018FFFFFFFFFFFFFFFFFFFF0011241FBE7E
:10026000CFEFD0E1DEBFCDBF11E0A0E0B1E0EAEC1E
:10027000F2E300E00BBF02C007900D92AA34B10771
:10028000D9F721E0AAE4B1E001C01D92A33AB20778
:10029000E1F70E94350E0C94631908950895FECF7E
:1002A0001F920F920FB60F9211240BB60F922F933D
:1002B0003F934F935F936F937F938F939F93AF93EE
:1002C000BF93EF93FF93EBDFFF91EF91BF91AF915E
:1002D0009F918F917F916F915F914F913F912F915E
:1002E0000F900BBE0F900FBE0F901F9018950895A2
:1002F000FECF1F920F920FB60F9211240BB60F92E2
:100300002F933F934F935F936F937F938F939F931D
:10031000AF93BF93EF93FF93EBDFFF91EF91BF910B
:10032000AF919F918F917F916F915F914F913F918D
:100330002F910F900BBE0F900FBE0F901F9018952E
:100340000895FECF1F920F920FB60F9211240BB695
:100350000F922F933F934F935F936F937F938F935E
:100360009F93AF93BF93EF93FF93EBDFFF91EF91D9
:10037000BF91AF919F918F917F916F915F914F91BD
:100380003F912F910F900BBE0F900FBE0F901F90BB
:1003900018950895FECF1F920F920FB60F92112459
:1003A0000BB60F922F933F934F935F936F937F936F
:1003B0008F939F93AF93BF93EF93FF93EBDFFF91E7
:1003C000EF91BF91AF919F918F917F916F915F91CD
:1003D0004F913F912F910F900BBE0F900FBE0F903A
:1003E0001F9018950895FECF1F920F920FB60F928F
:1003F00011240BB60F922F933F934F935F936F93FC
:100400007F938F939F93AF93BF93EF93FF93EBDF14
:10041000FF91EF91BF91AF919F918F917F916F91DC
:100420005F914F913F912F910F900BBE0F900FBE98
:100430000F901F9018950895FECF1F920F920FB640
:100440000F9211240BB60F922F933F934F935F930C
:100450006F937F938F939F93AF93BF93EF93FF938C
:10046000EBDFFF91EF91BF91AF919F918F917F91C2
:100470006F915F914F913F912F910F900BBE0F9015
:100480000FBE0F901F9018950895FECF1F920F92E8
:100490000FB60F9211240BB60F922F933F934F93E9
:1004A0005F936F937F938F939F93AF93BF93EF93DC
:1004B000FF93EBDFFF91EF91BF91AF919F918F91F0
:1004C0007F916F915F914F913F912F910F900BBE54
:1004D0000F900FBE0F901F9018950895FECF1F929A
:1004E0000F920FB60F9211240BB60F922F933F93DA
:1004F0004F935F936F937F938F939F93AF93BF932C
:10050000EF93FF93EBDFFF91EF91BF91AF919F913D
:100510008F917F916F915F914F913F912F910F90AC
:100520000BBE0F900FBE0F901F9018950895FECF31
:100530001F920F920FB60F9211240BB60F922F93AA
:100540003F934F935F936F937F938F939F93AF935B
:10055000BF93EF93FF93EBDFFF91EF91BF91AF91CB
:100560009F918F917F916F915F914F913F912F91CB
:100570000F900BBE0F900FBE0F901F90189508950F
:10058000FECF1F920F920FB60F9211240BB60F924F
:100590002F933F934F935F936F937F938F939F938B
:1005A000AF93BF93EF93FF93EBDFFF91EF91BF9179
:1005B000AF919F918F917F916F915F914F913F91FB
:1005C0002F910F900BBE0F900FBE0F901F9018959C
:1005D0000895FECF1F920F920FB60F9211240BB603
:1005E0000F922F933F934F935F936F937F938F93CC
:1005F0009F93AF93BF93EF93FF93EBDFFF91EF9147
:10060000BF91AF919F918F917F916F915F914F912A
:100610003F912F910F900BBE0F900FBE0F901F9028
:1006200018950895FECF1F920F920FB60F921124C6
:100630000BB60F922F933F934F935F936F937F93DC
:100640008F939F93AF93BF93EF93FF93EBDFFF9154
:10065000EF91BF91AF919F918F917F916F915F913A
:100660004F913F912F910F900BBE0F900FBE0F90A7
:100670001F9018950895FECF1F920F920FB60F92FC
:1006800011240BB60F922F933F934F935F936F9369
:100690007F938F939F93AF93BF93EF93FF93EBDF82
:1006A000FF91EF91BF91AF919F918F917F916F914A
:1006B0005F914F913F912F910F900BBE0F900FBE06
:1006C0000F901F9018950895FECF1F920F920FB6AE
:1006D0000F9211240BB60F922F933F934F935F937A
:1006E0006F937F938F939F93AF93BF93EF93FF93FA
:1006F000EBDFFF91EF91BF91AF919F918F917F9130
:100700006F915F914F913F912F910F900BBE0F9082
:100710000FBE0F901F9018950895FECF1F920F9255
:100720000FB60F9211240BB60F922F933F934F9356
:100730005F936F937F938F939F93AF93BF93EF9349
:10074000FF93EBDFFF91EF91BF91AF919F918F915D
:100750007F916F915F914F913F912F910F900BBEC1
:100760000F900FBE0F901F9018950895FECF1F9207
:100770000F920FB60F9211240BB60F922F933F9347
:100780004F935F936F937F938F939F93AF93BF9399
:10079000EF93FF93EBDFFF91EF91BF91AF919F91AB
:1007A0008F917F916F915F914F913F912F910F901A
:1007B0000BBE0F900FBE0F901F9018950895FECF9F
:1007C0001F920F920FB60F9211240BB60F922F9318
:1007D0003F934F935F936F937F938F939F93AF93C9
:1007E000BF93EF93FF93EBDFFF91EF91BF91AF9139
:1007F0009F918F917F916F915F914F913F912F9139
:100800000F900BBE0F900FBE0F901F90189508957C
:10081000FECF1F920F920FB60F9211240BB60F92BC
:100820002F933F934F935F936F937F938F939F93F8
:10083000AF93BF93EF93FF93EBDFFF91EF91BF91E6
:10084000AF919F918F917F916F915F914F913F9168
:100850002F910F900BBE0F900FBE0F901F90189509
:100860000895FECF1F920F920FB60F9211240BB670
:100870000F922F933F934F935F936F937F938F9339
:100880009F93AF93BF93EF93FF93EBDFFF91EF91B4
:10089000BF91AF919F918F917F916F915F914F9198
:1008A0003F912F910F900BBE0F900FBE0F901F9096
:1008B00018950895FECF1F920F920FB60F92112434
:1008C0000BB60F922F933F934F935F936F937F934A
:1008D0008F939F93AF93BF93EF93FF93EBDFFF91C2
:1008E000EF91BF91AF919F918F917F916F915F91A8
:1008F0004F913F912F910F900BBE0F900FBE0F9015
:100900001F9018950895FECF1F920F920FB60F9269
:1009100011240BB60F922F933F934F935F936F93D6
:100920007F938F939F93AF93BF93EF93FF93EBDFEF
:10093000FF91EF91BF91AF919F918F917F916F91B7
:100940005F914F913F912F910F900BBE0F900FBE73
:100950000F901F9018950895FECF1F920F920FB61B
:100960000F9211240BB60F922F933F934F935F93E7
:100970006F937F938F939F93AF93BF93EF93FF9367
:10098000EBDFFF91EF91BF91AF919F918F917F919D
:100990006F915F914F913F912F910F900BBE0F90F0
:1009A0000FBE0F901F9018950895FECF1F920F92C3
:1009B0000FB60F9211240BB60F922F933F934F93C4
:1009C0005F936F937F938F939F93AF93BF93EF93B7
:1009D000FF93EBDFFF91EF91BF91AF919F918F91CB
:1009E0007F916F915F914F913F912F910F900BBE2F
:1009F0000F900FBE0F901F9018950895FECF1F9275
:100A00000F920FB60F9211240BB60F922F933F93B4
:100A10004F935F936F937F938F939F93AF93BF9306
:100A2000EF93FF93EBDFFF91EF91BF91AF919F9118
:100A30008F917F916F915F914F913F912F910F9087
:100A40000BBE0F900FBE0F901F9018950895FECF0C
:100A50001F920F920FB60F9211240BB60F922F9385
:100A60003F934F935F936F937F938F939F93AF9336
:100A7000BF93EF93FF93EBDFFF91EF91BF91AF91A6
:100A80009F918F917F916F915F914F913F912F91A6
:100A90000F900BBE0F900FBE0F901F9018950895EA
:100AA000FECF1F920F920FB60F9211240BB60F922A
:100AB0002F933F934F935F936F937F938F939F9366
:100AC000AF93BF93EF93FF93EBDFFF91EF91BF9154
:100AD000AF919F918F917F916F915F914F913F91D6
:100AE0002F910F900BBE0F900FBE0F901F90189577
:100AF0000895FECF1F920F920FB60F9211240BB6DE
:100B00000F922F933F934F935F936F937F938F93A6
:100B10009F93AF93BF93EF93FF93EBDFFF91EF9121
:100B2000BF91AF919F918F917F916F915F914F9105
:100B30003F912F910F900BBE0F900FBE0F901F9003
:100B400018950895FECF1F920F920FB60F921124A1
:100B50000BB60F922F933F934F935F936F937F93B7
:100B60008F939F93AF93BF93EF93FF93EBDFFF912F
:100B7000EF91BF91AF919F918F917F916F915F9115
:100B80004F913F912F910F900BBE0F900FBE0F9082
:100B90001F9018950895FECF1F920F920FB60F92D7
:100BA00011240BB60F922F933F934F935F936F9344
:100BB0007F938F939F93AF93BF93EF93FF93EBDF5D
:100BC000FF91EF91BF91AF919F918F917F916F9125
:100BD0005F914F913F912F910F900BBE0F900FBEE1
:100BE0000F901F9018950895FECF1F920F920FB689
:100BF0000F9211240BB60F922F933F934F935F9355
:100C00006F937F938F939F93AF93BF93EF93FF93D4
:100C1000EBDFFF91EF91BF91AF919F918F917F910A
:100C20006F915F914F913F912F910F900BBE0F905D
:100C30000FBE0F901F9018950895FECF1F920F9230
:100C40000FB60F9211240BB60F922F933F934F9331
:100C50005F936F937F938F939F93AF93BF93EF9324
:100C6000FF93EBDFFF91EF91BF91AF919F918F9138
:100C70007F916F915F914F913F912F910F900BBE9C
:100C80000F900FBE0F901F9018950895FECF1F92E2
:100C90000F920FB60F9211240BB60F922F933F9322
:100CA0004F935F936F937F938F939F93AF93BF9374
:100CB000EF93FF93EBDFFF91EF91BF91AF919F9186
:100CC0008F917F916F915F914F913F912F910F90F5
:100CD0000BBE0F900FBE0F901F9018950895FECF7A
:100CE0001F920F920FB60F9211240BB60F922F93F3
:100CF0003F934F935F936F937F938F939F93AF93A4
:100D0000BF93EF93FF93EBDFFF91EF91BF91AF9113
:100D10009F918F917F916F915F914F913F912F9113
:100D20000F900BBE0F900FBE0F901F901895089557
:100D3000FECF1F920F920FB60F9211240BB60F9297
:100D40002F933F934F935F936F937F938F939F93D3
:100D5000AF93BF93EF93FF93EBDFFF91EF91BF91C1
:100D6000AF919F918F917F916F915F914F913F9143
:100D70002F910F900BBE0F900FBE0F901F901895E4
:100D8000EF92FF920F931F9352D071D074D086D000
:100D90004EE651E061E090E080E075D684E891E0B5
:100DA0009BD089E591E0B0D08FE691E0A1D08AE4B4
:100DB000E82E81E0F82E04E71BE026E73BE042E75F
:100DC0005BE06CE67BE08FE691E0AAD090E0E92E54
:100DD00091E0F92E00E819E023E439E040EB59E016
:100DE0006BEF79E089E591E09BD00BEB1BE02DEBFD
:100DF0003BE049EB5BE062E87BE089E591E090D085
:100E00001F910F91FF90EF900895CF93C82F8A30D4
:100E100011F48DE0FADF5D9BFECFCCB990E080E06D
:100E2000CF9108955F9BFECF8CB190E00895109212
:100E3000900081E189B98AB188618AB9E5E9F0E079
:100E4000808186608083EDE9F1E081E191E0938328
:100E50008283918380830895883040F428B32F7172
:100E600030E2839FC0011124822B88BB089587B391
:100E7000806E87BB089587B3807F876087BBE1E67C
:100E8000F0E080818061808383E58DB981E08EB957
:100E900008958FB9779BFECF8FB108951092980077
:100EA00081E180939900EAE9F0E0808188618083A4
:100EB000EDE9F0E0808186608083089590919B0049
:100EC00095FFFCCF80939C00089580919B0087FF45
:100ED000FCCF80919C000895FC01009739F01082AE
:100EE000909354018093530180E0089583E6089520
:100EF000FC01009739F010829093580180935701BC
:100F000080E0089583E60895FC01009739F010828F
:100F1000909356018093550180E0089583E60895EB
:100F2000CF92DF92EF92FF920F931F93CF93DF93B5
:100F3000FC016B01EA01B901A80183E63097F9F0E1
:100F4000908184E6890FDF011AE0919FA00DB11D09
:100F500011241296DC92CE9211971496DC93CE93C4
:100F6000139716967C936E93159718965C934E93F1
:100F700017971A96FC92EE9219979F5F9083DF91D4
:100F8000CF911F910F91FF90EF90DF90CF90089538
:100F9000EF92FF920F931F93582F962F842F622F5B
:100FA000402F97019456523051F0533009F1A091DF
:100FB0005301B0915401513031F083E614C0A09137
:100FC0005701B09158015C915917B8F05AE0959FBC
:100FD000A00DB11D11241196ED91FC911297199657
:100FE0000D911C9109951F910F91FF90EF9008951D
:100FF000A0915501B0915601E6CF85E0F4CFEF9274
:10100000FF920F931F93582F962F842F622F402FFC
:1010100097019456523051F0533009F1A091530189
:10102000B0915401513031F083E614C0A0915701C2
:10103000B09158015C915917B8F05AE0959FA00DF6
:10104000B11D11241396ED91FC91149719960D91F1
:101050001C9109951F910F91FF90EF900895A09119
:101060005501B0915601E6CF85E0F4CFCF92DF92E3
:10107000EF92FF920F931F93382F962F842F622F9A
:10108000402F2E2D86019456323051F0333019F115
:10109000A0915301B0915401313031F083E614C076
:1010A000A0915701B09158013C913917C8F03AE02E
:1010B000939FA00DB11D11241596ED91FC911697EB
:1010C0001996ED90FC9009951F910F91FF90EF906C
:1010D000DF90CF900895A0915501B0915601E4CFD3
:1010E00085E0F2CFCF92DF92EF92FF920F931F93A2
:1010F000382F962F842F622F402F2E2D8601945645
:10110000323051F0333019F1A0915301B0915401B4
:10111000313031F083E614C0A0915701B0915801ED
:101120003C913917C8F03AE0939FA00DB11D1124EE
:101130001796ED91FC9118971996ED90FC900995F2
:101140001F910F91FF90EF90DF90CF900895A091A5
:101150005501B0915601E4CF85E0F2CFCF93DF93F4
:101160007BDE80E096DE8FEF9BE60197F1F700C013
:10117000000080E08EDEC82F80E08BDE8FEF9BE6E4
:101180000197F1F700C0000080E083DED82F80E0F7
:1011900063DECD1304C08FEF8C0FC13009F480E003
:1011A000DF91CF910895EF92FF920F931F93E62F57
:1011B000D7018830F8F489E0283068F4683C81F081
:1011C00087E3860F8031C0F4EE0DFF2DF11DE85C42
:1011D000F109008380E01F910F91FF90EF90089537
:1011E0008C9101C0000F2A95EAF7082704230827ED
:1011F0000C93F0CF84E0EFCF87E0EDCFEF92FF923A
:101200000F931F93CF93DF93E90178018830A8F5FE
:101210006436C1F087E3860F803188F570E0FB010A
:10122000E85CF109E00FF11F695C7109C60FD71F77
:1012300090E080E050E084179507DCF42191299339
:101240000196F9CF4130E9F489DF982FF8018081C8
:10125000811108C09883DF91CF911F910F91FF906A
:10126000EF900895813039F4E90EF11CF701808187
:10127000888380E0F0CF9883FCCF84E0ECCF87E0D8
:10128000EACF88E0E8CFEF92FF920F931F93CF93BE
:10129000DF93982FE62F522FE801D70184E0983092
:1012A000D0F489E02830B8F4683CE1F087E3860F99
:1012B000803120F5E95CFF0BEE0DFF1D6181988107
:1012C000292F01C0220F5A95EAF72627822F84235F
:1012D0008627818380E0DF91CF911F910F91FF904E
:1012E000EF9008952C919881892F01C0880F5A950D
:1012F000EAF78227842382278C93ECCF87E0EBCF19
:10130000EF92FF920F931F93CF93DF93E62FD801B5
:10131000E701883008F589E02830A8F4683CD1F06E
:1013200087E3860F8031D0F4EE0DFF2DF11DE85CD0
:10133000F1098081482350E002C0559547952A95D0
:10134000E2F74C9380E0DF91CF911F910F91FF90D6
:10135000EF9008958881EECF84E0F5CF87E0F3CF5A
:10136000EF92FF920F931F93CF93DF93E9017801E0
:101370008830E8F5683CA9F120F46436B9F087E0DC
:101380001EC087E3860F8031D0F720E0695C241708
:1013900021F1862F820F90E0F701E80FF91F3181CC
:1013A0008C0F9D1FDC013C932F5FF1CF413009F57D
:1013B000D5DEE82FD8018C91811108C0E883DF9138
:1013C000CF911F910F91FF90EF900895813039F4E4
:1013D000E00FF12FF11D8081888380E0F0CFE8835A
:1013E000FCCF413031F4F80180818883CECF84E096
:1013F000E6CF88E0E4CF0F931F93CF93DF93F901FB
:10140000D801883020F5683C31F087E3860F8031C1
:1014100038F087E00AC088E0413039F480818C934D
:1014200020E0695C241306C080E0DF91CF911F911A
:101430000F910895862F820F90E0EF01C80FD91FFA
:1014400038818A0F9B1FEC0139832F5FEBCF84E03B
:10145000ECCFEF92FF920F931F93CF93DF9300D0C7
:1014600000D0CDB7DEB7DB01AB014B5F5F4F9E0114
:101470002B5F3F4FBE016F5F7F4FFA019191AF012C
:10148000E92FF0E0E552FE4F9491F90192939F010C
:10149000E617F70791F70C91202F30E0F8E00F9F47
:1014A000B00111240078F980F00E062F0074F00EC0
:1014B0008901000F111F0078A90174E0440F551F26
:1014C0007A95E1F74074E02EE42A0A81E00EA90142
:1014D000440F551F440F551F40788901F5E0000F58
:1014E000111FFA95E1F70074402B0B81040FA6E061
:1014F000220F331FAA95E1F720746078262B1C81F8
:10150000120FAADC8DE7DADC8DE7D8DC8DE7D6DCBC
:1015100081E0D4DC84E0D2DC84E0D0DC8F2DCEDC32
:1015200089E0F80E8E2DCADCEF0C802FC7DC0E0D83
:10153000812FC4DC812F800FC1DCC7DCC6DCC5DC99
:10154000C4DCC3DCC2DC80E087DC80E00F900F905D
:101550000F900F90DF91CF911F910F91FF90EF901F
:101560000895BF92CF92DF92EF92FF920F931F9355
:10157000CF93DF93D82F162FC42FB22E6DDCD83027
:1015800018F5183C19F587E019E08B1590F09C2FA1
:101590009095F7014081942301C0000FBA94EAF7B7
:1015A0000C23092B0083B7018D2F53DF182F80E008
:1015B00053DC812FDF91CF911F910F91FF90EF901E
:1015C000DF90CF90BF90089514E0F3CF17E0F1CFF4
:1015D000BF92CF92DF92EF92FF920F931F93CF9320
:1015E000DF93F82EB62EE42ED22EC32EE80134DC83
:1015F00087E08F1508F43FC0E3E0EB1508F43DC029
:101600006B2D70E0CB018E0D911D0597C4F5AD2DAE
:10161000BC2D8D2D9C2D2D2D382F3D193E15D0F034
:101620006B5F7F4FFE01E60FF71F8A2F821B8E151F
:10163000F8F0BE018F2D0DDFC82F80E00DDC8C2F60
:10164000DF91CF911F910F91FF90EF90DF90CF909E
:10165000BF900895FC013191CF0137FD07C0E32F02
:10166000F0E0E552FE4FE491EF3FB1F6C5E0E7CF81
:101670008D918193DACFC4E0E2CFC7E0E0CFC8E03C
:10168000DECF0F931F93F901D801883008F564303D
:1016900060F082E0683C31F483E0413019F48C91D1
:1016A000808380E01F910F91089570E050E0CB019E
:1016B000840F951F059774F46B5F7F4FA60FB71FBC
:1016C000420F531FE417F50761F38D918193FACF11
:1016D00084E0E8CF87E0E6CF0F931F9379DF1F9177
:1016E0000F91089580E0089580E00895EF92FF92B1
:1016F0000F931F93F801008134DF1F910F91FF902A
:10170000EF9008951F93CF93DF93162FE901883050
:1017100050F5423051F59FEF960F933040F59CDB2A
:1017200088EB8A95F1F70000E0912C01F0912D01F2
:10173000812F09958CEC9AE00197F1F700C0000029
:10174000E0912C01F0912D0189810995E0912C0106
:10175000F0912D018881099580E07EDB80E0DF91AA
:10176000CF911F91089584E0FACF88E0F8CF87E009
:10177000F6CF80E0089580E0089580E0089587B373
:10178000887F87BBBB9A80E48DB96F9A789408955F
:10179000E2E6F0E080818061808308958FB908954A
:1017A0008FB1089559DBE2E6F0E080818F7E80837F
:1017B0000895FF920F931F93CF93DF93CDB7DEB7BA
:1017C00028970FB6F894DEBF0FBECDBF182FF92EA5
:1017D000062F080FAE014F5F5F4F62E370E080E0BD
:1017E00090E0AFD1779B09C0E12FFF2D8FB181939E
:1017F0000E1799F01E2FFF2EEDCF89819A81AB81B4
:10180000BC818D839E83AF83B887BC01CD01C3D1DA
:10181000882341F381E080933E0128960FB6F89427
:10182000DEBF0FBECDBFDF91CF911F910F91FF9013
:101830000895CF93DF93CDB7DEB728970FB6F8940E
:10184000DEBF0FBECDBFAE014F5F5F4F62E370E002
:1018500080E090E076D1779B02C08FB111C0898182
:101860009A81AB81BC818D839E83AF83B887BC0195
:10187000CD0191D1882379F381E080933E0180E00E
:1018800028960FB6F894DEBF0FBECDBFDF91CF9183
:101890000895FF920F931F93CF93DF93CDB7DEB7D9
:1018A00028970FB6F894DEBF0FBECDBF8C01F62E81
:1018B000F80EF80180810F5F1F4F8FB9AE014F5FA7
:1018C0005F4F62E370E080E090E03BD1779B03C024
:1018D000F012EFCF10C089819A81AB81BC818D83DA
:1018E0009E83AF83B887BC01CD0155D1882371F3A6
:1018F00081E080933E0128960FB6F894DEBF0FBEBC
:10190000CDBFDF91CF911F910F91FF900895CF939D
:10191000DF93CDB7DEB728970FB6F894DEBF0FBEC2
:10192000CDBF8FB9AE014F5F5F4F62E370E080E0E3
:1019300090E007D1779910C089819A81AB81BC81F1
:101940008D839E83AF83B887BC01CD0124D18823CA
:1019500089F381E080933E0128960FB6F894DEBFAC
:101960000FBECDBFDF91CF910895DF92EF92FF922E
:101970000F931F93CF93DF93CDB7DEB728970FB6A2
:10198000F894DEBF0FBECDBF7B018C01D42ED80EE4
:10199000F80180810F5F1F4F8FB9AE014F5F5F4F1E
:1019A00062E370E080E090E0CCD0779B07C0F70165
:1019B0008FB18193D01691F07F01EACF89819A810E
:1019C000AB81BC818D839E83AF83B887BC01CD0181
:1019D000E2D0882351F381E080933E0128960FB630
:1019E000F894DEBF0FBECDBFDF91CF911F910F9155
:1019F000FF90EF90DF900895CF93DF93CDB7DEB7E0
:101A000028970FB6F894DEBF0FBECDBF8FB9AE01D9
:101A10004F5F5F4F62E370E080E090E092D0779B91
:101A200002C08FB111C089819A81AB81BC818D8345
:101A30009E83AF83B887BC01CD01ADD0882379F3F5
:101A400081E080933E0180E028960FB6F894DEBFD7
:101A50000FBECDBFDF91CF91089509DA87B38760BC
:101A600087BBBB98E1E6F0E08081806180838DB127
:101A700083658DB90895282F792FCA01462F50E02C
:101A8000622F0C944D19282F792FCA01462F50E050
:101A9000622F0C943D191092990110929A011092A4
:101AA0009B0110929C010895CF93DF9300D000D04A
:101AB000CDB7DEB78091990190919A01A0919B01D9
:101AC000B0919C01BC01CD010F900F900F900F9031
:101AD000DF91CF910895CF92DF92EF92FF92CF9353
:101AE000DF9300D000D000D0CDB7DEB769837A8312
:101AF0008B839C835E834D83C0909901D0909A0123
:101B0000E0909B01F0909C0128EE33E040E050E033
:101B10000E94EE16C20ED31EE41EF51EED81FE815C
:101B2000C082D182E282F38226960FB6F894DEBF9D
:101B30000FBECDBFDF91CF91FF90EF90DF90CF90A0
:101B400008950F931F93CF93DF9300D000D0CDB7AC
:101B5000DEB769837A838B839C838091990190910E
:101B60009A01A0919B01B0919C0109811A812B815E
:101B70003C81800F911FA21FB31FFA0180839183C4
:101B8000A283B3830F900F900F900F90DF91CF91AE
:101B90001F910F9108950F931F93CF93DF9300D060
:101BA00000D0CDB7DEB769837A838B839C83409165
:101BB000990150919A0160919B0170919C0181E083
:101BC00009811A812B813C810417150726073707E5
:101BD00008F080E00F900F900F900F90DF91CF9161
:101BE0001F910F910895CF93DF9300D000D0CDB710
:101BF000DEB769837A838B839C838091990190916E
:101C00009A01A0919B01B0919C0129813A814B815D
:101C10005C81820F931FA41FB51F409199015091C1
:101C20009A0160919B0170919C01481759076A07BE
:101C30007B0798F30F900F900F900F90DF91CF914B
:101C400008958091990190919A01A0919B01B09182
:101C50009C010196A11DB11D8093990190939A0159
:101C6000A0939B01B0939C0108958AD88FE391E0E3
:101C70000E94931880E090E008952F923F924F9237
:101C80005F926F927F928F929F92AF92BF92CF920C
:101C9000DF92EF92FF920F931F93CF93DF93CDB715
:101CA000DEB760970FB6F894DEBF0FBECDBF7C01E4
:101CB0001B016A01FC0117821682838181FF39C3EF
:101CC0009E012F5F3F4F3901F7019381F10193FD91
:101CD000859193FF81911F01882309F426C38532E2
:101CE00039F493FD859193FF81911F01853239F479
:101CF000B70190E00E94571856016501E5CF10E04A
:101D0000512C912CFFE1F915D8F08B3279F038F491
:101D1000803279F08332A1F4F92DF0612EC08D323A
:101D200061F0803369F4292D21602DC0392D326096
:101D3000932E892D8460982E2AC0E92DE86015C065
:101D400097FC2DC020ED280F2A3088F496FE06C09F
:101D50003AE0139F200D1124122F19C08AE0589EDB
:101D6000200D1124522EE92DE0629E2E10C08E32DD
:101D700031F496FCDAC2F92DF0649F2E08C08C363F
:101D800021F4292D2068922E02C0883641F4F101F9
:101D900093FD859193FF81911F018111B3CF9BEB3F
:101DA000980F933020F4992D9061805E07C09BE9D5
:101DB000980F933008F066C1992D9F7E96FF16E02C
:101DC0009F73992E853619F49064992E08C0863633
:101DD00021F4392F3068932E02C01111115097FE53
:101DE00007C01C3350F444244394410E27E00BC039
:101DF000183038F027E017E005C027E09CE3492EB3
:101E000002C0212F412C560184E0A80EB11CF6011E
:101E10006081718182819381042DA3010E9410173A
:101E20006C01F981FC87F0FF02C0F3FF06C091FC52
:101E300006C092FE06C000E205C00DE203C00BE240
:101E400001C000E08C858C7019F0011150C28DC268
:101E500097FE10C04C0CFC85F4FF04C08A818133CE
:101E600009F44A94141474F528E0241578F588E0F0
:101E7000482E2CC096FC2AC0812F90E08C159D0521
:101E80009CF03CEFC3163FEFD30674F0892D8068B9
:101E9000982E0AC0E2E0F0E0EC0FFD1FE10FF11D0B
:101EA0008081803319F411501111F4CF97FE0EC0C8
:101EB00044244394410E812F90E0C816D9062CF497
:101EC0001C1904C04424439401C010E097FE06C0CE
:101ED0001C141D0434F4C601019605C085E090E091
:101EE00002C081E090E001110196112331F0212F11
:101EF00030E02F5F3F4F820F931F252D30E0821778
:101F0000930714F4581A01C0512C892D897049F493
:101F1000552039F0B70180E290E00E9457185A949A
:101F2000F7CF002329F0B701802F90E00E945718C7
:101F300093FC09C0552039F0B70180E390E00E947E
:101F400057185A94F7CF97FE4CC04601D7FE02C0EF
:101F5000812C912CC60188199909F301E80FF91F0A
:101F6000FE87ED87960124193109388B2F87012FC1
:101F700010E01195019511093FEF8316930629F49E
:101F8000B7018EE290E00E945718C814D9044CF0B3
:101F90008F8598898815990524F4ED85FE858181C2
:101FA00001C080E3F1E08F1A91082D853E852F5FF7
:101FB0003F4F3E872D87801691062CF0B70190E0A9
:101FC0000E945718D9CFC814D90441F49A81963386
:101FD00020F4953319F43C8534FF81E3B70190E098
:101FE0004EC08A81813319F09C859F7E9C87B70102
:101FF00090E00E945718111105C094FC18C085E6A6
:1020000090E017C0B7018EE290E00E9457181E5F63
:1020100082E001E0080FF301E80FF11D8081B701B4
:1020200090E00E945718802F0113F3CFE6CF85E48C
:1020300090E0B7010E945718D7FC06C0C114D10424
:1020400041F4EC85E4FF05C0D194C194D1088DE240
:1020500001C08BE2B70190E00E94571880E32AE0AC
:10206000C216D1042CF08F5FFAE0CF1AD108F7CF57
:10207000B70190E00E945718B701C601C0960E94B0
:1020800057184AC1833631F0833779F0833509F028
:1020900052C01FC0560132E0A30EB11CF601808170
:1020A000898301E010E0630111C05601F2E0AF0E38
:1020B000B11CF601C080D18096FE03C0612F70E094
:1020C00002C06FEF7FEFC601A9D78C01F92DFF7712
:1020D00013C0560122E0A20EB11CF601C080D180CF
:1020E00096FE03C0612F70E002C06FEF7FEFC60164
:1020F0008AD78C01F92DF0689F2EF3FD18C0852D2D
:1021000090E00817190798F4B70180E290E0CFD764
:102110005A94F5CFF60197FC859197FE81916F0156
:10212000B70190E0C4D751105A940150110901151C
:10213000110581F7F1C0843611F0893661F5560139
:1021400097FE09C024E0A20EB11CF60160817181E6
:10215000828193810AC0F2E0AF0EB11CF60160816A
:102160007181072E000C880B990BF92DFF769F2E9D
:1021700097FF09C090958095709561957F4F8F4F1F
:102180009F4FF0689F2E2AE030E0A3010E94DC18E8
:10219000C82EC6183EC0092D853721F40F7E2AE0CF
:1021A00030E01DC0097F8F3691F018F4883559F062
:1021B000BCC0803719F0883711F0B7C0006104FF48
:1021C00009C0046007C094FE08C0066006C028E08D
:1021D00030E005C020E130E002C020E132E05601ED
:1021E00007FF09C084E0A80EB11CF601608171816F
:1021F0008281938108C0F2E0AF0EB11CF6016081CC
:10220000718180E090E0A301D7D7C82EC6180F7760
:10221000902E96FE0BC0092D0E7FC11650F494FE31
:102220000AC092FC08C0092D0E7E05C0DC2C092DC9
:1022300003C0DC2C01C0D12E04FF0DC0FE01EC0D4B
:10224000F11D8081803311F4097E09C002FF06C0B0
:10225000D394D39404C0802F867809F0D39403FDDF
:1022600010C000FF06C01C2DD51478F4150D1D19E3
:102270000CC0D51450F4B70180E290E018D7D39485
:10228000F8CFD51410F45D1801C0512C04FF0FC015
:10229000B70180E390E00BD702FF16C001FD03C039
:1022A00088E790E002C088E590E0B7010CC0802F7D
:1022B000867851F001FF02C08BE201C080E207FD89
:1022C0008DE2B70190E0F3D6C11630F4B70180E398
:1022D00090E0EDD61150F8CFCA94F301EC0DF11D4A
:1022E0008081B70190E0E3D6C110F6CF15C0F4E0CD
:1022F000F51550F584E0581A93FE1EC0011125C053
:102300002C8523FF27C00CE810E0392D3071932E67
:10231000F8018491811121C0552009F4EECCB70158
:1023200080E290E0C4D65A94F7CFF7018681978176
:1023300023C08FEF9FEF20C0B70180E290E0B7D6B7
:102340005A945110F9CFDACF512CB701802F90E079
:10235000AED6D6CF00E910E0D8CF91108052B701A9
:1023600090E0A5D60F5F1F4FD3CF23E0251510F4C3
:1023700083E0C1CF512CC4CF60960FB6F894DEBF76
:102380000FBECDBFDF91CF911F910F91FF90EF90C6
:10239000DF90CF90BF90AF909F908F907F906F9085
:1023A0005F904F903F902F90089520FD09C0FC0151
:1023B00023FD05C022FF02C07383628351834083E3
:1023C000089544FD17C046FD17C0AB01BC01DA01FA
:1023D000FB01AA0FBB1FEE1FFF1F1094D1F74A0F7E
:1023E0005B1F6E1F7F1FCB01BA01660F771F881F0F
:1023F000991F09C033E001C034E0660F771F881FC2
:10240000991F3150D1F7620F711D811D911D0895E3
:102410000F931F93CF93DF938C01C8010AD6EC0171
:1024200097FD06C0D5D5892BC1F7B801CE01ABD633
:10243000CE01DF91CF911F910F9108958F929F92BE
:10244000AF92BF92CF92DF92EF92FF920F931F93C2
:10245000CF93DF937C018B016A01D22FEAD59C01D7
:1024600033272B32310521F02D32310551F4D0685C
:102470000150110911F480E064C0C701DAD597FD5D
:10248000FACFCD2FCD7F2D2F207309F58033F9F4AE
:10249000580181E0A81AB10809F440C0C701C9D5A4
:1024A00097FD3CC09C012F7D33272835310549F429
:1024B000C2640250110991F1C701BBD597FF07C053
:1024C0002DC0D6FF02C0C26001C0C2618501812C4F
:1024D000912C540120ED280F283078F0C4FF03C060
:1024E000B70151D618C02A3040F0C6FFF9CF2F7D72
:1024F0003FEE320F3630A0F727504C2FC501B40104
:1025000060DF4B015C01C2600150110951F0C7014D
:1025100090D597FFDFCFC1FD04C0ADCF812C912CAA
:102520005401C7FF08C0B094A09490948094811C7B
:10253000911CA11CB11C2C2FB501A401C60135DFD3
:1025400081E0DF91CF911F910F91FF90EF90DF908D
:10255000CF90BF90AF909F908F9008954F925F92D1
:102560006F927F928F929F92AF92BF92CF92DF92A3
:10257000EF92FF920F931F93CF93DF93CDB7DEB708
:10258000A0970FB6F894DEBF0FBECDBF5C014B0124
:102590007A018E010F5F1F4F680180E2F8011192EE
:1025A0008A95E9F7F501538040E050E0612C90E016
:1025B000712CA1E0B0E0F90153FC859153FE8191AB
:1025C0008F01482E9F01811103C080E090E094C0EC
:1025D0008E3519F44115510551F1672D70E06417DE
:1025E00075073CF48D3561F18D3219F4992311F1A1
:1025F00003C0992309F46BC0842D86958695869532
:10260000F601E80FF11D842D87708D0102C0000FC7
:10261000111F8A95E2F7C8019081892B8083641489
:1026200059F0461410F44394E7CF4A94E5CF772449
:10263000739403C091E001C090E04F5F5F4FBBCF48
:10264000992319F08E8180628E83711003C07724E4
:10265000739419C0F6019E012F5D3F4F80818095D4
:1026600081932E173F07D1F7F2CFE114F10431F037
:10267000F7018083B7016F5F7F4F7B0171E0871A9D
:102680009108712CE9F0C501D4D497FD17C0FC0165
:10269000FF2723E0F595E7952A95E1F7EC0DFD1D61
:1026A000208130E0AC014770552702C03595279551
:1026B0004A95E2F720FDD9CFB50165D5711085CFD8
:1026C000E114F10411F0F7011082C80115C0682F60
:1026D000669566956695F601E60FF11D682F6770A1
:1026E0008D0102C0000F111F6A95E2F7B8017081D9
:1026F000672B6083682EA1CFA0960FB6F894DEBF3B
:102700000FBECDBFDF91CF911F910F91FF90EF9042
:10271000DF90CF90BF90AF909F908F907F906F9001
:102720005F904F9008952F923F924F925F926F92D9
:102730007F929F92AF92BF92CF92DF92EF92FF92E1
:102740000F931F93CF93DF936C018B011A0171D408
:10275000EC0199278B32910529F08D9779F430E8B7
:10276000932E01C0912C0150110911F480E0FEC09C
:10277000C6015FD4EC0197FF02C0F8CF912CCE01C7
:102780002FD48936910531F08E36910581F5C0EA56
:10279000D1E002C0C3EAD1E02196FE013197B490A6
:1027A000BB20B1F00150110979F0C60142D47C017F
:1027B00097FD0AC015D49927EB2DF0E08E179F07DF
:1027C00059F3B601C701DFD4C65AD14079F603C028
:1027D000C35AD14029F080E090E0A0E8BFE704C0F0
:1027E00080E090E0A0ECBFE7BC01CD01AFC0412C80
:1027F000512C3201E12CF12C2C2F20532A3008F5DA
:10280000E92DE260BE2E892D887092FE06C08111EE
:102810001FC0FFEFEF1AFF0A1BC0882319F081E0E9
:10282000E81AF10840E2C301B201CBDD2B013C0103
:10283000683979498949994158F0F92DF660BF2ED8
:1028400007C02E3F81F493FC0EC0292D2860B22EC4
:102850000150110939F0C601ECD3EC019B2C97FF14
:10286000CBCF01C09B2C91FE81CFCE018F7D9927CC
:102870008534910509F03EC0580181E0A81AB108DD
:1028800009F474CFC601D5D3EC0197FD6FCF99271A
:102890008B32910529F08D9761F4E92DE0619E2E30
:1028A0005801F2E0AF1AB10809F460CFC601C1D3F4
:1028B000EC01CE01C0970A9708F058CF8501A12CF2
:1028C000B12CB501BB0C880B990B2C2F205340E287
:1028D00078DD5B010150110931F0C601AAD3EC018A
:1028E000C0970A9770F394FE03C0B194A194B10805
:1028F000EA0CFB1C012B29F0D7FD03C0B601CE0169
:1029000042D4C301B20179D1F7FE06C0F194E1943B
:10291000F108CFEBD1E002C0C7EDD1E06E0128E1B4
:10292000C21AD10800E210E0E016F10648F0FE01FC
:1029300025913591459154919DD1E01AF10AF4CF3A
:10294000249716950795CC16DD0671F797FE05C0FE
:10295000DC01CB01B058BC01CD012114310429F0B8
:10296000F101608371838283938381E0DF91CF9152
:102970001F910F91FF90EF90DF90CF90BF90AF909D
:102980009F907F906F905F904F903F902F90089511
:102990006F927F928F929F92AF92BF92CF92DF926F
:1029A000EF92FF920F931F93CF93DF935C01EB01A4
:1029B0004A01FC0117821682612CF5010381FE0198
:1029C00003FD859103FF8191182FEF01882309F4FE
:1029D00000C190E0FDD2892B19F0C50119DDEDCFC2
:1029E000153241F4FE0103FD159103FF1191EF0132
:1029F000153271F4C5011DD397FDE9C0412F50E098
:102A00009C01332724173507C1F2B501BCD3E1C0BF
:102A10001A3241F403FD159103FF1191EF01772460
:102A2000739401C0712CE12CF12C20ED210F2A3080
:102A300080F4F72DF2607F2EB70180E090E040E255
:102A4000C0DC7B01FE0103FD159103FF1191EF0135
:102A5000ECCF71FE04C0E114F10421F4BAC0EE24FD
:102A6000EA94FE2C183619F01C3661F014C0FE01F1
:102A700003FD159103FF1191EF01183661F4872DC5
:102A80008860782E972D9460792EFE0103FD1591B4
:102A900003FF1191EF01112309F49BC0612F70E036
:102AA0008EE891E0A5D2892B09F493C070FC07C091
:102AB000F401C080D180C40102964C0102C0C12C37
:102AC000D12C1E3649F4F5014681578160E070E053
:102AD000272DC6016ADC71CF1336B1F471FC03C037
:102AE000EE24E394F12CC501A4D297FD70C0C1146B
:102AF000D10429F0F6018083C60101966C0191E0B2
:102B0000E91AF10881F75FC01B3551F49E01A60157
:102B1000B701C50123DDEC01892B09F054C04EC07B
:102B2000C50176DC97FD53C01F36C9F140F4143659
:102B300091F11936B9F1183509F03AC028C01337A8
:102B4000A9F018F4103719F133C0153721F11837EF
:102B5000F1F02EC0C114D10429F0F6010083C601A2
:102B600001966C0191E0E91AF10859F0C50161D2B2
:102B70008C0197FD06C02CD2892B61F3B501C801E9
:102B800002D3C114D104F9F0F60110821CC0F72D54
:102B9000F0647F2E07C0872D8062782E03C0972DAA
:102BA0009061792E272DA601B701C50147DC04C02D
:102BB000A601B701C501B7DD811105C0F50183810B
:102BC000807329F406C070FCF8CE6394F6CE6620BC
:102BD00019F0862D90E002C08FEF9FEFDF91CF912B
:102BE0001F910F91FF90EF90DF90CF90BF90AF902B
:102BF0009F908F907F906F900895E89409C097FB05
:102C00003EF490958095709561957F4F8F4F9F4FC3
:102C10009923A9F0F92F96E9BB279395F695879507
:102C200077956795B795F111F8CFFAF4BB0F11F4CA
:102C300060FF1BC06F5F7F4F8F4F9F4F16C0882371
:102C400011F096E911C0772321F09EE8872F762FA7
:102C500005C0662371F096E8862F70E060E02AF0E8
:102C60009A95660F771F881FDAF7880F96958795D4
:102C700097F908950BD078C069D028F06ED018F07D
:102C8000952309F05AC05FC01124A2C07ED0A0F3E2
:102C9000959FD1F3950F50E0551F629FF001729FF1
:102CA000BB27F00DB11D639FAA27F00DB11DAA1F10
:102CB000649F6627B00DA11D661F829F2227B00D5D
:102CC000A11D621F739FB00DA11D621F839FA00DE8
:102CD000611D221F749F3327A00D611D231F849F38
:102CE000600D211D822F762F6A2F11249F5750408F
:102CF0008AF0E1F088234AF0EE0FFF1FBB1F661F2A
:102D0000771F881F91505040A9F79E3F510570F0E2
:102D100014C05EC05F3FECF3983EDCF38695779578
:102D20006795B795F795E7959F5FC1F7FE2B880FDD
:102D3000911D9695879597F9089597F99F6780E873
:102D400070E060E008959FEF80EC089500240A94FD
:102D50001616170618060906089500240A94121676
:102D60001306140605060895092E0394000C11F4A9
:102D7000882352F0BB0F40F4BF2B11F460FF04C056
:102D80006F5F7F4F8F4F9F4F089557FD9058440FAF
:102D9000551F59F05F3F71F04795880F97FB991FBA
:102DA00061F09F3F79F08795089512161306140677
:102DB000551FF2CF4695F1DF08C016161706180604
:102DC000991FF1CF86957105610508940895E894DF
:102DD000BB2766277727CB0197F90895A1E21A2E22
:102DE000AA1BBB1BFD010DC0AA1FBB1FEE1FFF1FAF
:102DF000A217B307E407F50720F0A21BB30BE40BFF
:102E0000F50B661F771F881F991F1A9469F7609545
:102E10007095809590959B01AC01BD01CF010895FF
:102E2000283008F027E03327DA01990F311D87FD9C
:102E3000916000966105710539F432602E5F3D9313
:102E400030E32A95E1F708959F3F30F0803871050F
:102E5000610509F03C5F3C5F3D93913008F080686C
:102E6000911DDF93CF931F930F93FF92EF92192F32
:102E7000987F9695E92F96959695E90FFF27E25151
:102E8000FF4F99273327EE24FF24A701E701059080
:102E90000894079428F4360FE71EF81E491F511DA9
:102EA000660F771F881F991F0694A1F70590079456
:102EB00028F4E70EF81E491F561FC11D770F881F03
:102EC000991F661F0694A1F70590079428F4F80E41
:102ED000491F561FC71FD11D880F991F661F771FD7
:102EE0000694A1F70590079420F4490F561FC71FB9
:102EF000D81F990F661F771F881F0694A9F7849122
:102F00001095177041F0D695C79557954795F7944A
:102F1000E7941A95C1F7E4E9F0E0689415901591EB
:102F200035916591959105907FE27395E118F10ACD
:102F3000430B560BC90BD009C0F7E10CF11E431F20
:102F4000561FC91FD01D7EF4703311F48A95E6CF49
:102F5000E894015030F0080F0AF40027021708F433
:102F6000202F2395022F7A3328F079E37D932A9539
:102F7000E9F710C07D932A9589F606949795679591
:102F8000379517951794E118F10A430B560BC90BA7
:102F9000D00998F023957E9173957A3308F070E309
:102FA0007C932013B8F77E9170617D9330F0839508
:102FB00071E37D9370E32A95E1F71124EF90FF9080
:102FC0000F911F91CF91DF91992787FD90950895DB
:102FD000911150C1803219F089508550D0F7089571
:102FE0009111089581548A5108F4805E855A08959C
:102FF000FC010590061621F00020D9F7C0010895C4
:103000003197CF010895FC01059061507040011087
:10301000D8F7809590958E0F9F1F0895FC01615001
:10302000704001900110D8F7809590958E0F9F1FEA
:103030000895CF93DF93EC012B8120FF33C026FF4F
:103040000AC02F7B2B838E819F8101969F838E8365
:103050008A8190E029C022FF0FC0E881F981808138
:10306000082E000C990B009719F420622B831AC0CC
:103070003196F983E8830EC0EA85FB85099597FFB1
:1030800009C02B81019611F080E201C080E1822B02
:103090008B8308C02E813F812F5F3F4F3F832E835C
:1030A000992702C08FEF9FEFDF91CF9108950F9383
:1030B0001F93CF93DF93FB01238121FD03C08FEF8B
:1030C0009FEF2CC022FF16C0468157812481358195
:1030D0004217530744F4A081B1819D012F5F3F4FF8
:1030E000318320838C93268137812F5F3F4F378335
:1030F000268314C08B01EC01FB010084F185E02DD7
:103100000995892BE1F6D80116968D919C91179718
:10311000019617969C938E931697CE01DF91CF91CF
:103120001F910F9108950F931F93CF93DF93E09119
:103130009F01F091A001238121FF1BC08C01D0E0F1
:10314000C0E0F80181918F0160919F017091A00111
:10315000DB011896ED91FC911997882331F00995C0
:10316000892B79F3DFEFCFEFECCF8AE00995892B3C
:1031700019F08FEF9FEF02C08D2F9C2FDF91CF9121
:103180001F910F910895FB01238120FF12C026FD9E
:1031900010C08F3F3FEF930761F082832F7D206443
:1031A000238326813781215031093783268399274C
:1031B00008958FEF9FEF0895FA01AA27283051F163
:1031C000203181F1E8946F936E7F6E5F7F4F8F4F58
:1031D0009F4FAF4FB1E03ED0B4E03CD0670F781FB7
:1031E000891F9A1FA11D680F791F8A1F911DA11D9C
:1031F0006A0F711D811D911DA11D20D009F46894D5
:103200003F912AE0269F11243019305D3193DEF67C
:10321000CF010895462F4770405D4193B3E00FD032
:10322000C9F7F6CF462F4F70405D4A3318F0495D1D
:1032300031FD4052419302D0A9F7EACFB4E0A69500
:103240009795879577956795BA95C9F70097610522
:10325000710508959B01AC010A2E06945795479578
:1032600037952795BA95C9F7620F731F841F951F6D
:10327000A01D0895992788270895DC01CB01FC0142
:10328000E199FECF06C0FFBBEEBBE09A31960DB2CE
:103290000D9241505040B8F70895DC01CB0102C0B7
:1032A0002D9105D041505040D8F70895262FE1992F
:1032B000FECF9FBB8EBB2DBB0FB6F894E29AE19A6E
:0A32C0000FBE01960895F894FFCFA9
:1032CA000046454443423336394132353830313489
:1032DA00370000000300000000050712070000BFC6
:1032EA000B0000CE0BD00B0000002D0DFC0CB50C12
:1032FA000000870C490C190CD90BD20BC80B0048DB
:0A330A00656C6C6F20415652000004
:00000001FF
